{
  "contractName": "BancorAdaptor",
  "abi": [
    {
      "inputs": [
        {
          "internalType": "address",
          "name": "_marketplace_address",
          "type": "address"
        },
        {
          "internalType": "address",
          "name": "_bancor_converter_address",
          "type": "address"
        },
        {
          "internalType": "address",
          "name": "_datacoin_address",
          "type": "address"
        }
      ],
      "payable": false,
      "stateMutability": "nonpayable",
      "type": "constructor"
    },
    {
      "constant": false,
      "inputs": [
        {
          "internalType": "bytes32",
          "name": "productId",
          "type": "bytes32"
        },
        {
          "internalType": "contract IERC20Token[]",
          "name": "bancor_conversion_path",
          "type": "address[]"
        },
        {
          "internalType": "uint256",
          "name": "minSubscriptionSeconds",
          "type": "uint256"
        }
      ],
      "name": "buyWithETH",
      "outputs": [],
      "payable": true,
      "stateMutability": "payable",
      "type": "function"
    },
    {
      "constant": false,
      "inputs": [
        {
          "internalType": "bytes32",
          "name": "productId",
          "type": "bytes32"
        },
        {
          "internalType": "contract IERC20Token[]",
          "name": "bancor_conversion_path",
          "type": "address[]"
        },
        {
          "internalType": "uint256",
          "name": "minSubscriptionSeconds",
          "type": "uint256"
        },
        {
          "internalType": "uint256",
          "name": "amount",
          "type": "uint256"
        }
      ],
      "name": "buyWithERC20",
      "outputs": [],
      "payable": false,
      "stateMutability": "nonpayable",
      "type": "function"
    }
  ],
  "bytecode": "0x608060405234801561001057600080fd5b50604051610f3e380380610f3e8339818101604052606081101561003357600080fd5b5080516020820151604090920151600080546001600160a01b039384166001600160a01b0319918216179091556001805494841694821694909417909355600280549290911691909216179055610eaf8061008f6000396000f3fe6080604052600436106100295760003560e01c806384c3c0ea1461002e578063e92c34c3146100ec575b600080fd5b34801561003a57600080fd5b506100ea6004803603608081101561005157600080fd5b8135919081019060408101602082013564010000000081111561007357600080fd5b82018360208201111561008557600080fd5b803590602001918460208302840111640100000000831117156100a757600080fd5b9190808060200260200160405190810160405280939291908181526020018383602002808284376000920191909152509295505082359350505060200135610198565b005b6100ea6004803603606081101561010257600080fd5b8135919081019060408101602082013564010000000081111561012457600080fd5b82018360208201111561013657600080fd5b8035906020019184602083028401116401000000008311171561015857600080fd5b91908080602002602001604051908101604052809392919081815260200183836020028082843760009201919091525092955050913592506104ad915050565b60006101a38561057a565b90508061021d5760008054604080516301cc3a8960e11b8152600481018990526024810187905233604482015290516001600160a01b039092169263039875129260648084019382900301818387803b1580156101ff57600080fd5b505af1158015610213573d6000803e3d6000fd5b50505050506104a7565b60008460008151811061022c57fe5b602090810291909101810151604080516323b872dd60e01b81523360048201523060248201526044810187905290519193506001600160a01b038416926323b872dd926064808401938290030181600087803b15801561028b57600080fd5b505af115801561029f573d6000803e3d6000fd5b505050506040513d60208110156102b557600080fd5b5051610308576040805162461bcd60e51b815260206004820152601f60248201527f6d7573742070726520617070726f766520746f6b656e207472616e7366657200604482015290519081900360640190fd5b6001546040805163095ea7b360e01b81526001600160a01b03928316600482015260006024820181905291519284169263095ea7b392604480840193602093929083900390910190829087803b15801561036157600080fd5b505af1158015610375573d6000803e3d6000fd5b505050506040513d602081101561038b57600080fd5b50516103d0576040805162461bcd60e51b815260206004820152600f60248201526e185c1c1c9bdd985b0819985a5b1959608a1b604482015290519081900360640190fd5b6001546040805163095ea7b360e01b81526001600160a01b0392831660048201526024810186905290519183169163095ea7b3916044808201926020929091908290030181600087803b15801561042657600080fd5b505af115801561043a573d6000803e3d6000fd5b505050506040513d602081101561045057600080fd5b5051610495576040805162461bcd60e51b815260206004820152600f60248201526e185c1c1c9bdd985b0819985a5b1959608a1b604482015290519081900360640190fd5b6104a4868686868660006107b7565b50505b50505050565b60006104b88461057a565b9050806105665734156104f35760405133903480156108fc02916000818181858888f193505050501580156104f1573d6000803e3d6000fd5b505b60008054604080516301cc3a8960e11b8152600481018890526024810186905233604482015290516001600160a01b039092169263039875129260648084019382900301818387803b15801561054857600080fd5b505af115801561055c573d6000803e3d6000fd5b5050505050610575565b6104a7848484348560016107b7565b505050565b6000805460408051633a20e9df60e01b81526004810185905290518392839283926001600160a01b0390921691633a20e9df916024808201928692909190829003018186803b1580156105cc57600080fd5b505afa1580156105e0573d6000803e3d6000fd5b505050506040513d6000823e601f3d908101601f1916820160405261010081101561060a57600080fd5b810190808051604051939291908464010000000082111561062a57600080fd5b90830190602082018581111561063f57600080fd5b825164010000000081118282018810171561065957600080fd5b82525081516020918201929091019080838360005b8381101561068657818101518382015260200161066e565b50505050905090810190601f1680156106b35780820380516001836020036101000a031916815260200191505b506040526020810151606082015160809092015190975090955093505050506001600160a01b038316610719576040805162461bcd60e51b81526020600482015260096024820152681b9bdd08199bdd5b9960ba1b604482015290519081900360640190fd5b60005460405163bee7d43360e01b8152600160048201818152602483018690526001600160a01b039093169263bee7d4339286918691604401828581111561075d57fe5b60ff168152602001935050505060206040518083038186803b15801561078257600080fd5b505afa158015610796573d6000803e3d6000fd5b505050506040513d60208110156107ac57600080fd5b505195945050505050565b60025485516001600160a01b0390911690869060001981019081106107d857fe5b60200260200101516001600160a01b03161461083b576040805162461bcd60e51b815260206004820152601860248201527f6d75737420636f6e7665727420746f2044415441636f696e0000000000000000604482015290519081900360640190fd5b6000821161087a5760405162461bcd60e51b815260040180806020018281038252602a815260200180610e30602a913960400191505060405180910390fd5b600061088c838663ffffffff610cee16565b600254604080516370a0823160e01b815230600482015290519293506000926001600160a01b03909216916370a0823191602480820192602092909190829003018186803b1580156108dd57600080fd5b505afa1580156108f1573d6000803e3d6000fd5b505050506040513d602081101561090757600080fd5b50516001549091506000906001600160a01b031663f0843ba98561092c57600061092e565b875b8a89876040518563ffffffff1660e01b81526004018080602001848152602001838152602001828103825285818151815260200191508051906020019060200280838360005b8381101561098c578181015183820152602001610974565b505050509050019450505050506020604051808303818588803b1580156109b257600080fd5b505af11580156109c6573d6000803e3d6000fd5b50505050506040513d60208110156109dd57600080fd5b5051600254604080516370a0823160e01b81523060048201529051929350839285926001600160a01b0316916370a08231916024808301926020929190829003018186803b158015610a2e57600080fd5b505afa158015610a42573d6000803e3d6000fd5b505050506040513d6020811015610a5857600080fd5b50510310801590610a695750828110155b610aba576040805162461bcd60e51b815260206004820152601c60248201527f6e6f7420656e6f7567682064617461636f696e20726563656976656400000000604482015290519081900360640190fd5b600254600080546040805163095ea7b360e01b81526001600160a01b039283166004820152602481018490529051919093169263095ea7b39260448083019360209390929083900390910190829087803b158015610b1757600080fd5b505af1158015610b2b573d6000803e3d6000fd5b505050506040513d6020811015610b4157600080fd5b5051610b86576040805162461bcd60e51b815260206004820152600f60248201526e185c1c1c9bdd985b0819985a5b1959608a1b604482015290519081900360640190fd5b600254600080546040805163095ea7b360e01b81526001600160a01b039283166004820152602481018690529051919093169263095ea7b39260448083019360209390929083900390910190829087803b158015610be357600080fd5b505af1158015610bf7573d6000803e3d6000fd5b505050506040513d6020811015610c0d57600080fd5b5051610c52576040805162461bcd60e51b815260206004820152600f60248201526e185c1c1c9bdd985b0819985a5b1959608a1b604482015290519081900360640190fd5b6000546001600160a01b031663039875128a610c74848963ffffffff610d5016565b336040518463ffffffff1660e01b815260040180848152602001838152602001826001600160a01b03166001600160a01b031681526020019350505050600060405180830381600087803b158015610ccb57600080fd5b505af1158015610cdf573d6000803e3d6000fd5b50505050505050505050505050565b600082610cfd57506000610d4a565b82820282848281610d0a57fe5b0414610d475760405162461bcd60e51b8152600401808060200182810382526021815260200180610e5a6021913960400191505060405180910390fd5b90505b92915050565b6000610d4783836040518060400160405280601a81526020017f536166654d6174683a206469766973696f6e206279207a65726f00000000000081525060008183610e195760405162461bcd60e51b81526004018080602001828103825283818151815260200191508051906020019080838360005b83811015610dde578181015183820152602001610dc6565b50505050905090810190601f168015610e0b5780820380516001836020036101000a031916815260200191505b509250505060405180910390fd5b506000838581610e2557fe5b049594505050505056fe6275795573696e6742616e636f722072657175697265732070726963655065725365636f6e64203e2030536166654d6174683a206d756c7469706c69636174696f6e206f766572666c6f77a265627a7a72315820d158425f988c598b91bf70856481681e46e67498cdd5aeaa3931e951d91601e564736f6c63430005100032",
  "source": "pragma solidity ^0.5.16;\n\nimport \"./Marketplace.sol\";\n\ninterface IERC20Token {\n    function name() external view returns (string memory);\n    function symbol() external view returns (string memory);\n    function decimals() external view returns (uint8);\n    function totalSupply() external view returns (uint256);\n    function balanceOf(address _owner) external view returns (uint256);\n    function allowance(address _owner, address _spender) external view returns (uint256);\n    function transfer(address _to, uint256 _value) external returns (bool success);\n    function transferFrom(address _from, address _to, uint256 _value) external returns (bool success);\n    function approve(address _spender, uint256 _value) external returns (bool success);\n}\n\ninterface IBancorConverter {\n    function quickConvert(IERC20Token[] calldata _path, uint256 _amount, uint256 _minReturn) external payable returns (uint256);\n}\n\n\n\ncontract BancorAdaptor {\n    using SafeMath for uint256;\n\n    IMarketplace2 marketplace;\n    IBancorConverter bancor_converter;\n    IERC20Token datacoin;\n    constructor(address _marketplace_address, address _bancor_converter_address, address _datacoin_address) public {\n        marketplace = IMarketplace2(_marketplace_address);\n        bancor_converter = IBancorConverter(_bancor_converter_address);\n        datacoin = IERC20Token(_datacoin_address);\n    }\n\n\t/**\n\t* @return price per second of product in DATA, or reverts() if none found\n\t*/\n    function _getPricePerSecond(bytes32 productId) internal view returns (uint) {\n        (, address owner,, uint pricePerSecond, Marketplace.Currency priceCurrency,,,) = marketplace.getProduct(productId);\n        require(owner != address(0), \"not found\");\n        return marketplace.getPriceInData(1, pricePerSecond, priceCurrency);\n    }\n\n    function _buyUsingBancor(bytes32 productId, IERC20Token[] memory bancor_conversion_path, uint minSubscriptionSeconds, uint amount, uint pricePerSecond, bool isEth) internal {\n        require(address(bancor_conversion_path[bancor_conversion_path.length - 1]) == address(datacoin), \"must convert to DATAcoin\");\n        require(pricePerSecond > 0, \"buyUsingBancor requires pricePerSecond > 0\");\n        uint min_datacoin = pricePerSecond.mul(minSubscriptionSeconds);\n        uint256 datacoin_before_transfer = datacoin.balanceOf(address(this));\n        //pass the ETH to Bancor, this contract receives datacoin\n        uint256 received_datacoin = bancor_converter.quickConvert.value(isEth ? amount : 0)(bancor_conversion_path,amount,min_datacoin);\n        //check the actual balance of DATAcoin received\n        require(datacoin.balanceOf(address(this)) - datacoin_before_transfer >= received_datacoin && received_datacoin >= min_datacoin, \"not enough datacoin received\");\n        require(datacoin.approve(address(marketplace),0),\"approval failed\");\n        require(datacoin.approve(address(marketplace),received_datacoin),\"approval failed\");\n        marketplace.buyFor(productId,received_datacoin.div(pricePerSecond),msg.sender);\n    }\n\n    function buyWithETH(bytes32 productId,IERC20Token[] memory bancor_conversion_path,uint minSubscriptionSeconds) public payable{\n        uint pricePerSecond = _getPricePerSecond(productId);\n\n        if(pricePerSecond == 0x0){\n        //subscription is free. return payment and subscribe\n            if(msg.value > 0x0){\n                msg.sender.transfer(msg.value);\n            }\n            marketplace.buyFor(productId,minSubscriptionSeconds,msg.sender);\n            return;\n        }\n        _buyUsingBancor(productId, bancor_conversion_path, minSubscriptionSeconds, msg.value, pricePerSecond, true);\n    }\n\n    function buyWithERC20(bytes32 productId,IERC20Token[] memory bancor_conversion_path,uint minSubscriptionSeconds, uint amount) public{\n        uint pricePerSecond = _getPricePerSecond(productId);\n        if(pricePerSecond == 0x0){\n            //subscription is free. return payment and subscribe\n            marketplace.buyFor(productId,minSubscriptionSeconds,msg.sender);\n            return;\n        }\n        IERC20Token fromToken = bancor_conversion_path[0];\n        require(fromToken.transferFrom(msg.sender,address(this),amount), \"must pre approve token transfer\");\n        require(fromToken.approve(address(bancor_converter), 0), \"approval failed\");\n        require(fromToken.approve(address(bancor_converter), amount), \"approval failed\");\n        _buyUsingBancor(productId, bancor_conversion_path, minSubscriptionSeconds, amount, pricePerSecond, false);\n    }\n\n}\n",
  "sourcePath": "/Users/unomasanori/projects/DEMO_MVP/Streamer🇨🇭Data Challenge/Ref/marketplace-contracts/contracts/BancorAdaptor.sol",
  "compiler": {
    "name": "solc",
    "version": "0.5.16+commit.9c3226ce.Emscripten.clang"
  },
  "schemaVersion": "3.0.23",
  "updatedAt": "2021-01-11T05:57:50.845Z",
  "devdoc": {
    "methods": {}
  },
  "userdoc": {
    "methods": {}
  }
}