{
  "contractName": "Marketplace20180425",
  "abi": [
    {
      "inputs": [
        {
          "internalType": "address",
          "name": "datacoinAddress",
          "type": "address"
        },
        {
          "internalType": "address",
          "name": "currencyUpdateAgentAddress",
          "type": "address"
        }
      ],
      "payable": false,
      "stateMutability": "nonpayable",
      "type": "constructor"
    },
    {
      "anonymous": false,
      "inputs": [
        {
          "indexed": false,
          "internalType": "uint256",
          "name": "timestamp",
          "type": "uint256"
        },
        {
          "indexed": false,
          "internalType": "uint256",
          "name": "dataInUsd",
          "type": "uint256"
        }
      ],
      "name": "ExchangeRatesUpdated",
      "type": "event"
    },
    {
      "anonymous": false,
      "inputs": [],
      "name": "Halted",
      "type": "event"
    },
    {
      "anonymous": false,
      "inputs": [
        {
          "indexed": true,
          "internalType": "bytes32",
          "name": "productId",
          "type": "bytes32"
        },
        {
          "indexed": true,
          "internalType": "address",
          "name": "subscriber",
          "type": "address"
        },
        {
          "indexed": false,
          "internalType": "uint256",
          "name": "endTimestamp",
          "type": "uint256"
        }
      ],
      "name": "NewSubscription",
      "type": "event"
    },
    {
      "anonymous": false,
      "inputs": [
        {
          "indexed": true,
          "internalType": "address",
          "name": "previousOwner",
          "type": "address"
        },
        {
          "indexed": true,
          "internalType": "address",
          "name": "newOwner",
          "type": "address"
        }
      ],
      "name": "OwnershipTransferred",
      "type": "event"
    },
    {
      "anonymous": false,
      "inputs": [
        {
          "indexed": true,
          "internalType": "address",
          "name": "owner",
          "type": "address"
        },
        {
          "indexed": true,
          "internalType": "bytes32",
          "name": "id",
          "type": "bytes32"
        },
        {
          "indexed": false,
          "internalType": "string",
          "name": "name",
          "type": "string"
        },
        {
          "indexed": false,
          "internalType": "address",
          "name": "beneficiary",
          "type": "address"
        },
        {
          "indexed": false,
          "internalType": "uint256",
          "name": "pricePerSecond",
          "type": "uint256"
        },
        {
          "indexed": false,
          "internalType": "enum Marketplace20180425.Currency",
          "name": "currency",
          "type": "uint8"
        },
        {
          "indexed": false,
          "internalType": "uint256",
          "name": "minimumSubscriptionSeconds",
          "type": "uint256"
        }
      ],
      "name": "ProductCreated",
      "type": "event"
    },
    {
      "anonymous": false,
      "inputs": [
        {
          "indexed": true,
          "internalType": "address",
          "name": "owner",
          "type": "address"
        },
        {
          "indexed": true,
          "internalType": "bytes32",
          "name": "id",
          "type": "bytes32"
        },
        {
          "indexed": false,
          "internalType": "string",
          "name": "name",
          "type": "string"
        },
        {
          "indexed": false,
          "internalType": "address",
          "name": "beneficiary",
          "type": "address"
        },
        {
          "indexed": false,
          "internalType": "uint256",
          "name": "pricePerSecond",
          "type": "uint256"
        },
        {
          "indexed": false,
          "internalType": "enum Marketplace20180425.Currency",
          "name": "currency",
          "type": "uint8"
        },
        {
          "indexed": false,
          "internalType": "uint256",
          "name": "minimumSubscriptionSeconds",
          "type": "uint256"
        }
      ],
      "name": "ProductDeleted",
      "type": "event"
    },
    {
      "anonymous": false,
      "inputs": [
        {
          "indexed": true,
          "internalType": "address",
          "name": "newOwner",
          "type": "address"
        },
        {
          "indexed": true,
          "internalType": "bytes32",
          "name": "id",
          "type": "bytes32"
        },
        {
          "indexed": true,
          "internalType": "address",
          "name": "oldOwner",
          "type": "address"
        }
      ],
      "name": "ProductOwnershipChanged",
      "type": "event"
    },
    {
      "anonymous": false,
      "inputs": [
        {
          "indexed": true,
          "internalType": "address",
          "name": "owner",
          "type": "address"
        },
        {
          "indexed": true,
          "internalType": "bytes32",
          "name": "id",
          "type": "bytes32"
        },
        {
          "indexed": true,
          "internalType": "address",
          "name": "to",
          "type": "address"
        }
      ],
      "name": "ProductOwnershipOffered",
      "type": "event"
    },
    {
      "anonymous": false,
      "inputs": [
        {
          "indexed": true,
          "internalType": "address",
          "name": "owner",
          "type": "address"
        },
        {
          "indexed": true,
          "internalType": "bytes32",
          "name": "id",
          "type": "bytes32"
        },
        {
          "indexed": false,
          "internalType": "string",
          "name": "name",
          "type": "string"
        },
        {
          "indexed": false,
          "internalType": "address",
          "name": "beneficiary",
          "type": "address"
        },
        {
          "indexed": false,
          "internalType": "uint256",
          "name": "pricePerSecond",
          "type": "uint256"
        },
        {
          "indexed": false,
          "internalType": "enum Marketplace20180425.Currency",
          "name": "currency",
          "type": "uint8"
        },
        {
          "indexed": false,
          "internalType": "uint256",
          "name": "minimumSubscriptionSeconds",
          "type": "uint256"
        }
      ],
      "name": "ProductRedeployed",
      "type": "event"
    },
    {
      "anonymous": false,
      "inputs": [
        {
          "indexed": true,
          "internalType": "address",
          "name": "owner",
          "type": "address"
        },
        {
          "indexed": true,
          "internalType": "bytes32",
          "name": "id",
          "type": "bytes32"
        },
        {
          "indexed": false,
          "internalType": "string",
          "name": "name",
          "type": "string"
        },
        {
          "indexed": false,
          "internalType": "address",
          "name": "beneficiary",
          "type": "address"
        },
        {
          "indexed": false,
          "internalType": "uint256",
          "name": "pricePerSecond",
          "type": "uint256"
        },
        {
          "indexed": false,
          "internalType": "enum Marketplace20180425.Currency",
          "name": "currency",
          "type": "uint8"
        },
        {
          "indexed": false,
          "internalType": "uint256",
          "name": "minimumSubscriptionSeconds",
          "type": "uint256"
        }
      ],
      "name": "ProductUpdated",
      "type": "event"
    },
    {
      "anonymous": false,
      "inputs": [],
      "name": "Resumed",
      "type": "event"
    },
    {
      "anonymous": false,
      "inputs": [
        {
          "indexed": true,
          "internalType": "bytes32",
          "name": "productId",
          "type": "bytes32"
        },
        {
          "indexed": true,
          "internalType": "address",
          "name": "subscriber",
          "type": "address"
        },
        {
          "indexed": false,
          "internalType": "uint256",
          "name": "endTimestamp",
          "type": "uint256"
        }
      ],
      "name": "Subscribed",
      "type": "event"
    },
    {
      "anonymous": false,
      "inputs": [
        {
          "indexed": true,
          "internalType": "bytes32",
          "name": "productId",
          "type": "bytes32"
        },
        {
          "indexed": true,
          "internalType": "address",
          "name": "subscriber",
          "type": "address"
        },
        {
          "indexed": false,
          "internalType": "uint256",
          "name": "endTimestamp",
          "type": "uint256"
        }
      ],
      "name": "SubscriptionExtended",
      "type": "event"
    },
    {
      "anonymous": false,
      "inputs": [
        {
          "indexed": true,
          "internalType": "bytes32",
          "name": "productId",
          "type": "bytes32"
        },
        {
          "indexed": true,
          "internalType": "address",
          "name": "from",
          "type": "address"
        },
        {
          "indexed": true,
          "internalType": "address",
          "name": "to",
          "type": "address"
        },
        {
          "indexed": false,
          "internalType": "uint256",
          "name": "secondsTransferred",
          "type": "uint256"
        }
      ],
      "name": "SubscriptionTransferred",
      "type": "event"
    },
    {
      "constant": false,
      "inputs": [],
      "name": "claimOwnership",
      "outputs": [],
      "payable": false,
      "stateMutability": "nonpayable",
      "type": "function"
    },
    {
      "constant": true,
      "inputs": [],
      "name": "currencyUpdateAgent",
      "outputs": [
        {
          "internalType": "address",
          "name": "",
          "type": "address"
        }
      ],
      "payable": false,
      "stateMutability": "view",
      "type": "function"
    },
    {
      "constant": true,
      "inputs": [],
      "name": "dataPerUsd",
      "outputs": [
        {
          "internalType": "uint256",
          "name": "",
          "type": "uint256"
        }
      ],
      "payable": false,
      "stateMutability": "view",
      "type": "function"
    },
    {
      "constant": true,
      "inputs": [],
      "name": "datacoin",
      "outputs": [
        {
          "internalType": "contract ERC20",
          "name": "",
          "type": "address"
        }
      ],
      "payable": false,
      "stateMutability": "view",
      "type": "function"
    },
    {
      "constant": true,
      "inputs": [],
      "name": "halted",
      "outputs": [
        {
          "internalType": "bool",
          "name": "",
          "type": "bool"
        }
      ],
      "payable": false,
      "stateMutability": "view",
      "type": "function"
    },
    {
      "constant": true,
      "inputs": [],
      "name": "owner",
      "outputs": [
        {
          "internalType": "address",
          "name": "",
          "type": "address"
        }
      ],
      "payable": false,
      "stateMutability": "view",
      "type": "function"
    },
    {
      "constant": true,
      "inputs": [],
      "name": "pendingOwner",
      "outputs": [
        {
          "internalType": "address",
          "name": "",
          "type": "address"
        }
      ],
      "payable": false,
      "stateMutability": "view",
      "type": "function"
    },
    {
      "constant": true,
      "inputs": [
        {
          "internalType": "bytes32",
          "name": "",
          "type": "bytes32"
        }
      ],
      "name": "products",
      "outputs": [
        {
          "internalType": "bytes32",
          "name": "id",
          "type": "bytes32"
        },
        {
          "internalType": "string",
          "name": "name",
          "type": "string"
        },
        {
          "internalType": "address",
          "name": "owner",
          "type": "address"
        },
        {
          "internalType": "address",
          "name": "beneficiary",
          "type": "address"
        },
        {
          "internalType": "uint256",
          "name": "pricePerSecond",
          "type": "uint256"
        },
        {
          "internalType": "enum Marketplace20180425.Currency",
          "name": "priceCurrency",
          "type": "uint8"
        },
        {
          "internalType": "uint256",
          "name": "minimumSubscriptionSeconds",
          "type": "uint256"
        },
        {
          "internalType": "enum Marketplace20180425.ProductState",
          "name": "state",
          "type": "uint8"
        },
        {
          "internalType": "address",
          "name": "newOwnerCandidate",
          "type": "address"
        }
      ],
      "payable": false,
      "stateMutability": "view",
      "type": "function"
    },
    {
      "constant": false,
      "inputs": [
        {
          "internalType": "address",
          "name": "newOwner",
          "type": "address"
        }
      ],
      "name": "transferOwnership",
      "outputs": [],
      "payable": false,
      "stateMutability": "nonpayable",
      "type": "function"
    },
    {
      "constant": true,
      "inputs": [
        {
          "internalType": "bytes32",
          "name": "id",
          "type": "bytes32"
        }
      ],
      "name": "getProduct",
      "outputs": [
        {
          "internalType": "string",
          "name": "name",
          "type": "string"
        },
        {
          "internalType": "address",
          "name": "owner",
          "type": "address"
        },
        {
          "internalType": "address",
          "name": "beneficiary",
          "type": "address"
        },
        {
          "internalType": "uint256",
          "name": "pricePerSecond",
          "type": "uint256"
        },
        {
          "internalType": "enum Marketplace20180425.Currency",
          "name": "currency",
          "type": "uint8"
        },
        {
          "internalType": "uint256",
          "name": "minimumSubscriptionSeconds",
          "type": "uint256"
        },
        {
          "internalType": "enum Marketplace20180425.ProductState",
          "name": "state",
          "type": "uint8"
        }
      ],
      "payable": false,
      "stateMutability": "view",
      "type": "function"
    },
    {
      "constant": false,
      "inputs": [
        {
          "internalType": "bytes32",
          "name": "id",
          "type": "bytes32"
        },
        {
          "internalType": "string",
          "name": "name",
          "type": "string"
        },
        {
          "internalType": "address",
          "name": "beneficiary",
          "type": "address"
        },
        {
          "internalType": "uint256",
          "name": "pricePerSecond",
          "type": "uint256"
        },
        {
          "internalType": "enum Marketplace20180425.Currency",
          "name": "currency",
          "type": "uint8"
        },
        {
          "internalType": "uint256",
          "name": "minimumSubscriptionSeconds",
          "type": "uint256"
        }
      ],
      "name": "createProduct",
      "outputs": [],
      "payable": false,
      "stateMutability": "nonpayable",
      "type": "function"
    },
    {
      "constant": false,
      "inputs": [
        {
          "internalType": "bytes32",
          "name": "productId",
          "type": "bytes32"
        }
      ],
      "name": "deleteProduct",
      "outputs": [],
      "payable": false,
      "stateMutability": "nonpayable",
      "type": "function"
    },
    {
      "constant": false,
      "inputs": [
        {
          "internalType": "bytes32",
          "name": "productId",
          "type": "bytes32"
        }
      ],
      "name": "redeployProduct",
      "outputs": [],
      "payable": false,
      "stateMutability": "nonpayable",
      "type": "function"
    },
    {
      "constant": false,
      "inputs": [
        {
          "internalType": "bytes32",
          "name": "productId",
          "type": "bytes32"
        },
        {
          "internalType": "string",
          "name": "name",
          "type": "string"
        },
        {
          "internalType": "address",
          "name": "beneficiary",
          "type": "address"
        },
        {
          "internalType": "uint256",
          "name": "pricePerSecond",
          "type": "uint256"
        },
        {
          "internalType": "enum Marketplace20180425.Currency",
          "name": "currency",
          "type": "uint8"
        },
        {
          "internalType": "uint256",
          "name": "minimumSubscriptionSeconds",
          "type": "uint256"
        }
      ],
      "name": "updateProduct",
      "outputs": [],
      "payable": false,
      "stateMutability": "nonpayable",
      "type": "function"
    },
    {
      "constant": false,
      "inputs": [
        {
          "internalType": "bytes32",
          "name": "productId",
          "type": "bytes32"
        },
        {
          "internalType": "address",
          "name": "newOwnerCandidate",
          "type": "address"
        }
      ],
      "name": "offerProductOwnership",
      "outputs": [],
      "payable": false,
      "stateMutability": "nonpayable",
      "type": "function"
    },
    {
      "constant": false,
      "inputs": [
        {
          "internalType": "bytes32",
          "name": "productId",
          "type": "bytes32"
        }
      ],
      "name": "claimProductOwnership",
      "outputs": [],
      "payable": false,
      "stateMutability": "nonpayable",
      "type": "function"
    },
    {
      "constant": true,
      "inputs": [
        {
          "internalType": "bytes32",
          "name": "productId",
          "type": "bytes32"
        },
        {
          "internalType": "address",
          "name": "subscriber",
          "type": "address"
        }
      ],
      "name": "getSubscription",
      "outputs": [
        {
          "internalType": "bool",
          "name": "isValid",
          "type": "bool"
        },
        {
          "internalType": "uint256",
          "name": "endTimestamp",
          "type": "uint256"
        }
      ],
      "payable": false,
      "stateMutability": "view",
      "type": "function"
    },
    {
      "constant": true,
      "inputs": [
        {
          "internalType": "bytes32",
          "name": "productId",
          "type": "bytes32"
        }
      ],
      "name": "getSubscriptionTo",
      "outputs": [
        {
          "internalType": "bool",
          "name": "isValid",
          "type": "bool"
        },
        {
          "internalType": "uint256",
          "name": "endTimestamp",
          "type": "uint256"
        }
      ],
      "payable": false,
      "stateMutability": "view",
      "type": "function"
    },
    {
      "constant": true,
      "inputs": [
        {
          "internalType": "bytes32",
          "name": "productId",
          "type": "bytes32"
        },
        {
          "internalType": "address",
          "name": "subscriber",
          "type": "address"
        }
      ],
      "name": "hasValidSubscription",
      "outputs": [
        {
          "internalType": "bool",
          "name": "isValid",
          "type": "bool"
        }
      ],
      "payable": false,
      "stateMutability": "view",
      "type": "function"
    },
    {
      "constant": false,
      "inputs": [
        {
          "internalType": "bytes32",
          "name": "productId",
          "type": "bytes32"
        },
        {
          "internalType": "uint256",
          "name": "subscriptionSeconds",
          "type": "uint256"
        },
        {
          "internalType": "address",
          "name": "recipient",
          "type": "address"
        }
      ],
      "name": "grantSubscription",
      "outputs": [],
      "payable": false,
      "stateMutability": "nonpayable",
      "type": "function"
    },
    {
      "constant": false,
      "inputs": [
        {
          "internalType": "bytes32",
          "name": "productId",
          "type": "bytes32"
        },
        {
          "internalType": "uint256",
          "name": "subscriptionSeconds",
          "type": "uint256"
        },
        {
          "internalType": "address",
          "name": "recipient",
          "type": "address"
        }
      ],
      "name": "buyFor",
      "outputs": [],
      "payable": false,
      "stateMutability": "nonpayable",
      "type": "function"
    },
    {
      "constant": false,
      "inputs": [
        {
          "internalType": "bytes32",
          "name": "productId",
          "type": "bytes32"
        },
        {
          "internalType": "uint256",
          "name": "subscriptionSeconds",
          "type": "uint256"
        }
      ],
      "name": "buy",
      "outputs": [],
      "payable": false,
      "stateMutability": "nonpayable",
      "type": "function"
    },
    {
      "constant": false,
      "inputs": [
        {
          "internalType": "bytes32",
          "name": "productId",
          "type": "bytes32"
        },
        {
          "internalType": "address",
          "name": "newSubscriber",
          "type": "address"
        }
      ],
      "name": "transferSubscription",
      "outputs": [],
      "payable": false,
      "stateMutability": "nonpayable",
      "type": "function"
    },
    {
      "constant": false,
      "inputs": [
        {
          "internalType": "uint256",
          "name": "timestamp",
          "type": "uint256"
        },
        {
          "internalType": "uint256",
          "name": "dataUsd",
          "type": "uint256"
        }
      ],
      "name": "updateExchangeRates",
      "outputs": [],
      "payable": false,
      "stateMutability": "nonpayable",
      "type": "function"
    },
    {
      "constant": true,
      "inputs": [
        {
          "internalType": "uint256",
          "name": "subscriptionSeconds",
          "type": "uint256"
        },
        {
          "internalType": "uint256",
          "name": "price",
          "type": "uint256"
        },
        {
          "internalType": "enum Marketplace20180425.Currency",
          "name": "unit",
          "type": "uint8"
        }
      ],
      "name": "getPriceInData",
      "outputs": [
        {
          "internalType": "uint256",
          "name": "datacoinAmount",
          "type": "uint256"
        }
      ],
      "payable": false,
      "stateMutability": "view",
      "type": "function"
    },
    {
      "constant": false,
      "inputs": [],
      "name": "halt",
      "outputs": [],
      "payable": false,
      "stateMutability": "nonpayable",
      "type": "function"
    },
    {
      "constant": false,
      "inputs": [],
      "name": "resume",
      "outputs": [],
      "payable": false,
      "stateMutability": "nonpayable",
      "type": "function"
    },
    {
      "constant": false,
      "inputs": [
        {
          "internalType": "address",
          "name": "datacoinAddress",
          "type": "address"
        },
        {
          "internalType": "address",
          "name": "currencyUpdateAgentAddress",
          "type": "address"
        }
      ],
      "name": "reInitialize",
      "outputs": [],
      "payable": false,
      "stateMutability": "nonpayable",
      "type": "function"
    }
  ],
  "bytecode": "0x608060405267016345785d8a00006005556006805460ff1916905534801561002657600080fd5b5060405162002712380380620027128339818101604052604081101561004b57600080fd5b508051602090910151600080546001600160a01b0319163317905561007982826001600160e01b0361008016565b50506100b1565b600380546001600160a01b039283166001600160a01b03199182161790915560028054939092169216919091179055565b61265180620000c16000396000f3fe608060405234801561001057600080fd5b50600436106101c45760003560e01c806379054391116100f9578063b9b8af0b11610097578063d50a04f411610071578063d50a04f414610817578063db6c709c1461081f578063e30c397814610842578063f2fde38b1461084a576101c4565b8063b9b8af0b14610707578063bee7d4331461070f578063cafbc49d1461074d576101c4565b80638da5cb5b116100d35780638da5cb5b1461067657806394727b411461067e57806396002aef1461069b578063b14f8432146106c7576101c4565b8063790543911461052b57806379c88f201461064a57806389aaad291461066e576101c4565b80634a54fb0a1161016657806358f816bf1161014057806358f816bf146104ac5780635ed7ca5b146104c95780635f28cb74146104d157806361362b68146104fd576101c4565b80634a54fb0a146103a25780634e71e0c81461046c57806353f81ef814610474576101c4565b80631a464fa1116101a25780631a464fa1146102285780631f4e09af1461024557806325017e10146102775780633a20e9df146102a3576101c4565b806303987512146101c9578063046f7da2146101fd5780630ddeb63214610205575b600080fd5b6101fb600480360360608110156101df57600080fd5b50803590602081013590604001356001600160a01b0316610870565b005b6101fb6108de565b6101fb6004803603604081101561021b57600080fd5b508035906020013561095e565b6101fb6004803603602081101561023e57600080fd5b50356109c9565b6101fb6004803603606081101561025b57600080fd5b50803590602081013590604001356001600160a01b0316610aec565b6101fb6004803603604081101561028d57600080fd5b50803590602001356001600160a01b0316610c21565b6102c0600480360360208110156102b957600080fd5b5035610d84565b6040518080602001886001600160a01b03166001600160a01b03168152602001876001600160a01b03166001600160a01b0316815260200186815260200185600181111561030a57fe5b60ff16815260200184815260200183600181111561032457fe5b60ff168152602001828103825289818151815260200191508051906020019080838360005b83811015610361578181015183820152602001610349565b50505050905090810190601f16801561038e5780820380516001836020036101000a031916815260200191505b509850505050505050505060405180910390f35b6101fb600480360360c08110156103b857600080fd5b813591908101906040810160208201356401000000008111156103da57600080fd5b8201836020820111156103ec57600080fd5b8035906020019184600183028401116401000000008311171561040e57600080fd5b91908080601f016020809104026020016040519081016040528093929190818152602001838380828437600092019190915250929550506001600160a01b038335169350505060208101359060ff6040820135169060600135610e83565b6101fb6110fb565b6104916004803603602081101561048a57600080fd5b50356111b1565b60408051921515835260208301919091528051918290030190f35b6101fb600480360360208110156104c257600080fd5b50356111c7565b6101fb61142f565b610491600480360360408110156104e757600080fd5b50803590602001356001600160a01b03166114b2565b6101fb6004803603604081101561051357600080fd5b506001600160a01b03813581169160200135166114da565b6105486004803603602081101561054157600080fd5b503561152f565b604051808a815260200180602001896001600160a01b03166001600160a01b03168152602001886001600160a01b03166001600160a01b0316815260200187815260200186600181111561059857fe5b60ff1681526020018581526020018460018111156105b257fe5b60ff168152602001836001600160a01b03166001600160a01b0316815260200182810382528a818151815260200191508051906020019080838360005b838110156106075781810151838201526020016105ef565b50505050905090810190601f1680156106345780820380516001836020036101000a031916815260200191505b509a505050505050505050505060405180910390f35b61065261161a565b604080516001600160a01b039092168252519081900360200190f35b610652611629565b610652611638565b6101fb6004803603602081101561069457600080fd5b5035611647565b6101fb600480360360408110156106b157600080fd5b50803590602001356001600160a01b0316611800565b6106f3600480360360408110156106dd57600080fd5b50803590602001356001600160a01b031661192f565b604080519115158252519081900360200190f35b6106f3611952565b61073b6004803603606081101561072557600080fd5b508035906020810135906040013560ff1661195b565b60408051918252519081900360200190f35b6101fb600480360360c081101561076357600080fd5b8135919081019060408101602082013564010000000081111561078557600080fd5b82018360208201111561079757600080fd5b803590602001918460018302840111640100000000831117156107b957600080fd5b91908080601f016020809104026020016040519081016040528093929190818152602001838380828437600092019190915250929550506001600160a01b038335169350505060208101359060ff60408201351690606001356119ce565b61073b611d3e565b6101fb6004803603604081101561083557600080fd5b5080359060200135611d44565b610652611de9565b6101fb6004803603602081101561086057600080fd5b50356001600160a01b0316611df8565b60065460ff16158061088c57506000546001600160a01b031633145b6108cc576040805162461bcd60e51b815260206004820152600c60248201526b195c9c9bdc97da185b1d195960a21b604482015290519081900360640190fd5b6108d98383836001611e65565b505050565b6000546001600160a01b03163314610929576040805162461bcd60e51b815260206004820152600960248201526837b7363ca7bbb732b960b91b604482015290519081900360640190fd5b6006805460ff191690556040517f62451d457bc659158be6e6247f56ec1df424a5c7597f71c20c2bc44e0965c8f990600090a1565b60065460ff16158061097a57506000546001600160a01b031633145b6109ba576040805162461bcd60e51b815260206004820152600c60248201526b195c9c9bdc97da185b1d195960a21b604482015290519081900360640190fd5b6109c5828233610870565b5050565b60065460ff1615806109e557506000546001600160a01b031633145b610a25576040805162461bcd60e51b815260206004820152600c60248201526b195c9c9bdc97da185b1d195960a21b604482015290519081900360640190fd5b600081815260046020526040902060098101546001600160a01b03163314610a89576040805162461bcd60e51b8152602060048201526012602482015271195c9c9bdc97db9bdd14195c9b5a5d1d195960721b604482015290519081900360640190fd5b60028101546040516001600160a01b0390911690839033907eaf27297c740fbece798135b71b06164310e0591b6c729e50b8026dcc60be5090600090a46002810180546001600160a01b0319908116331790915560099091018054909116905550565b60065460ff161580610b0857506000546001600160a01b031633145b610b48576040805162461bcd60e51b815260206004820152600c60248201526b195c9c9bdc97da185b1d195960a21b604482015290519081900360640190fd5b60008381526004602052604090208054849190610b9d576040805162461bcd60e51b815260206004820152600e60248201526d195c9c9bdc97db9bdd119bdd5b9960921b604482015290519081900360640190fd5b60028101546001600160a01b0316331480610bc257506000546001600160a01b031633145b610c0d576040805162461bcd60e51b81526020600482015260176024820152766572726f725f70726f647563744f776e6572734f6e6c7960481b604482015290519081900360640190fd5b610c1a8585856000611e65565b5050505050565b60065460ff161580610c3d57506000546001600160a01b031633145b610c7d576040805162461bcd60e51b815260206004820152600c60248201526b195c9c9bdc97da185b1d195960a21b604482015290519081900360640190fd5b600080610c8a8433612094565b91509150610c978161210c565b610ce8576040805162461bcd60e51b815260206004820152601a60248201527f6572726f725f737562736372697074696f6e4e6f7456616c6964000000000000604482015290519081900360640190fd5b8054600090610cfd904263ffffffff61211316565b6001600160a01b03851660009081526008850160205260409020909150610d2684868484612155565b336000818152600886016020908152604080832092909255815185815291516001600160a01b03891693928a927f748c12d8611352a3ff4f8d6d8405f8fd259695b031b2000827b207975a05cea092918290030190a4505050505050565b60008181526004602081815260408084206002808201546003830154958301546005840154600685015460078601546001968701805489516101009982161599909902600019011696909604601f81018a90048a0288018a0190985287875260609a998a998a998a998a998a9990986001600160a01b03918216989190951696949560ff91821695949116928991830182828015610e635780601f10610e3857610100808354040283529160200191610e63565b820191906000526020600020905b815481529060010190602001808311610e4657829003601f168201915b505050505096509650965096509650965096509650919395979092949650565b60008681526004602052604090208054879190610ed8576040805162461bcd60e51b815260206004820152600e60248201526d195c9c9bdc97db9bdd119bdd5b9960921b604482015290519081900360640190fd5b60028101546001600160a01b0316331480610efd57506000546001600160a01b031633145b610f48576040805162461bcd60e51b81526020600482015260176024820152766572726f725f70726f647563744f776e6572734f6e6c7960481b604482015290519081900360640190fd5b60008511610f9d576040805162461bcd60e51b815260206004820152601e60248201527f6572726f725f6672656550726f64756374734e6f74537570706f727465640000604482015290519081900360640190fd5b600088815260046020908152604090912088519091610fc39160018401918b019061254d565b506003810180546001600160a01b0319166001600160a01b0389161790556004810186905560058101805486919060ff19166001838181111561100257fe5b02179055506006810184905580546002820154604080516001600160a01b038b811660208301529181018a90529116907f21953ef62f6c172d864b9ae2181d3c7114ef506c3546057e354cf6b5bab03ec4908b908b908b908b908b90806060810184600181111561106f57fe5b60ff168152602001838152602001828103825287818151815260200191508051906020019080838360005b838110156110b257818101518382015260200161109a565b50505050905090810190601f1680156110df5780820380516001836020036101000a031916815260200191505b50965050505050505060405180910390a3505050505050505050565b6001546001600160a01b0316331461114d576040805162461bcd60e51b815260206004820152601060248201526f37b7363ca832b73234b733a7bbb732b960811b604482015290519081900360640190fd5b600154600080546040516001600160a01b0393841693909116917f8be0079c531659141344cd1fd0a4f28419497f9722a3daafe3b4186f6b6457e091a360018054600080546001600160a01b03199081166001600160a01b03841617909155169055565b6000806111be83336114b2565b91509150915091565b6000818152600460205260409020805482919061121c576040805162461bcd60e51b815260206004820152600e60248201526d195c9c9bdc97db9bdd119bdd5b9960921b604482015290519081900360640190fd5b60028101546001600160a01b031633148061124157506000546001600160a01b031633145b61128c576040805162461bcd60e51b81526020600482015260176024820152766572726f725f70726f647563744f776e6572734f6e6c7960481b604482015290519081900360640190fd5b600083815260046020526040812090600782015460ff1660018111156112ae57fe5b14611300576040805162461bcd60e51b815260206004820152601760248201527f6572726f725f6d75737442654e6f744465706c6f796564000000000000000000604482015290519081900360640190fd5b60078101805460ff1916600190811790915560028201546003830154600484015460058501546006860154604080516001600160a01b03958616602082018190529181018590528b9795909616957f07ace6911e28d0d5b2e773ce49cdfa29db157b38bffccd5f0b56f02cfba8a64f95808a01959294929360ff90931692919081906060820190859081111561139257fe5b60ff16815260208101849052604083820381018352885460026001821615610100026000190190911604908201819052606090910190889080156114175780601f106113ec57610100808354040283529160200191611417565b820191906000526020600020905b8154815290600101906020018083116113fa57829003601f168201915b5050965050505050505060405180910390a350505050565b6000546001600160a01b0316331461147a576040805162461bcd60e51b815260206004820152600960248201526837b7363ca7bbb732b960b91b604482015290519081900360640190fd5b6006805460ff191660011790556040517f1ee9080f6b55ca44ce58681c8162e6c1ac1c47e1da791a4a1c1ec6186d8af1f390600090a1565b60008060006114c18585612094565b9150506114cd8161210c565b9054909590945092505050565b6000546001600160a01b03163314611525576040805162461bcd60e51b815260206004820152600960248201526837b7363ca7bbb732b960b91b604482015290519081900360640190fd5b6109c5828261232b565b6004602090815260009182526040918290208054600180830180548651600293821615610100026000190190911692909204601f8101869004860283018601909652858252919492939092908301828280156115cc5780601f106115a1576101008083540402835291602001916115cc565b820191906000526020600020905b8154815290600101906020018083116115af57829003601f168201915b50505060028401546003850154600486015460058701546006880154600789015460099099015497986001600160a01b0395861698948616975092955060ff91821694909392909116911689565b6002546001600160a01b031681565b6003546001600160a01b031681565b6000546001600160a01b031681565b6000818152600460205260409020805482919061169c576040805162461bcd60e51b815260206004820152600e60248201526d195c9c9bdc97db9bdd119bdd5b9960921b604482015290519081900360640190fd5b60028101546001600160a01b03163314806116c157506000546001600160a01b031633145b61170c576040805162461bcd60e51b81526020600482015260176024820152766572726f725f70726f647563744f776e6572734f6e6c7960481b604482015290519081900360640190fd5b60008381526004602052604090206001600782015460ff16600181111561172f57fe5b14611775576040805162461bcd60e51b8152602060048201526011602482015270195c9c9bdc97db9bdd11195c1b1bde5959607a1b604482015290519081900360640190fd5b60078101805460ff1916905560028101546003820154600483015460058401546006850154604080516001600160a01b03958616602082018190529181018590528a9695909516947ffc64345d61f75f77f5039b0e23107d4abd73ecb7cd6c94fd44e8a6dd85918f6a946001808a01959394919360ff16929081906060820190859081111561139257fe5b60008281526004602052604090208054839190611855576040805162461bcd60e51b815260206004820152600e60248201526d195c9c9bdc97db9bdd119bdd5b9960921b604482015290519081900360640190fd5b60028101546001600160a01b031633148061187a57506000546001600160a01b031633145b6118c5576040805162461bcd60e51b81526020600482015260176024820152766572726f725f70726f647563744f776e6572734f6e6c7960481b604482015290519081900360640190fd5b6000848152600460205260408082206009810180546001600160a01b0319166001600160a01b03888116918217909255600290920154925191938893909116917f62160e4abadfc3a6afc583d10586d737c813753fe64d93f4283282b2b600a3449190a450505050565b60008061193c8484612094565b9150506119488161210c565b9150505b92915050565b60065460ff1681565b60008082600181111561196a57fe5b141561198757611980838563ffffffff61235c16565b90506119c7565b6119c4846119b8670de0b6b3a76400006119ac6005548861235c90919063ffffffff16565b9063ffffffff6123b516565b9063ffffffff61235c16565b90505b9392505050565b60065460ff1615806119ea57506000546001600160a01b031633145b611a2a576040805162461bcd60e51b815260206004820152600c60248201526b195c9c9bdc97da185b1d195960a21b604482015290519081900360640190fd5b85611a72576040805162461bcd60e51b8152602060048201526013602482015272195c9c9bdc97db9d5b1b141c9bd91d58dd1259606a1b604482015290519081900360640190fd5b60008311611ac7576040805162461bcd60e51b815260206004820152601e60248201527f6572726f725f6672656550726f64756374734e6f74537570706f727465640000604482015290519081900360640190fd5b6000868152600460205260409020805415611b1f576040805162461bcd60e51b81526020600482015260136024820152726572726f725f616c726561647945786973747360681b604482015290519081900360640190fd5b604051806101200160405280888152602001878152602001336001600160a01b03168152602001866001600160a01b03168152602001858152602001846001811115611b6757fe5b81526020810184905260400160018152600060209182018190528981526004825260409020825181558282015180519192611baa9260018501929091019061254d565b5060408201516002820180546001600160a01b039283166001600160a01b03199182161790915560608401516003840180549190931691161790556080820151600482015560a082015160058201805460ff191660018381811115611c0b57fe5b021790555060c0820151600682015560e082015160078201805460ff191660018381811115611c3657fe5b02179055506101009190910151600990910180546001600160a01b0319166001600160a01b039283161790556040805191871660208301528101859052879033907f397627c8e8e4324a0f8a98a8274c00e4cee798d000625304ffbae6144ec64e5490899089908990899089908060608101846001811115611cb457fe5b60ff168152602001838152602001828103825287818151815260200191508051906020019080838360005b83811015611cf7578181015183820152602001611cdf565b50505050905090810190601f168015611d245780820380516001836020036101000a031916815260200191505b50965050505050505060405180910390a350505050505050565b60055481565b6003546001600160a01b03163314611d98576040805162461bcd60e51b8152602060048201526012602482015271195c9c9bdc97db9bdd14195c9b5a5d1d195960721b604482015290519081900360640190fd5b60008111611da557600080fd5b6005819055604080518381526020810183905281517fc84d758f9836fe65b8f2be13d5e364b9373411e1158b63c1c5abbbae78949609929181900390910190a15050565b6001546001600160a01b031681565b6000546001600160a01b03163314611e43576040805162461bcd60e51b815260206004820152600960248201526837b7363ca7bbb732b960b91b604482015290519081900360640190fd5b600180546001600160a01b0319166001600160a01b0392909216919091179055565b600080611e728685612094565b90925090506001600783015460ff166001811115611e8c57fe5b14611ed2576040805162461bcd60e51b8152602060048201526011602482015270195c9c9bdc97db9bdd11195c1b1bde5959607a1b604482015290519081900360640190fd5b611ede82858784612155565b60008315611fd45760048301546005840154611efe91889160ff1661195b565b6002546003850154604080516323b872dd60e01b81523360048201526001600160a01b0392831660248201526044810185905290519394509116916323b872dd916064808201926020929091908290030181600087803b158015611f6157600080fd5b505af1158015611f75573d6000803e3d6000fd5b505050506040513d6020811015611f8b57600080fd5b5051611fd4576040805162461bcd60e51b8152602060048201526013602482015272195c9c9bdc97dc185e5b595b9d11985a5b1959606a1b604482015290519081900360640190fd5b60038301546001600160a01b0316803b9081156120895760038501548454604080516391517bdd60e01b8152600481018d90526001600160a01b038b81166024830152604482019390935260648101879052905191909216916391517bdd9160848083019260209291908290030181600087803b15801561205457600080fd5b505af1158015612068573d6000803e3d6000fd5b505050506040513d602081101561207e57600080fd5b505161208957600080fd5b505050505050505050565b600082815260046020526040812080549091906120e9576040805162461bcd60e51b815260206004820152600e60248201526d195c9c9bdc97db9bdd119bdd5b9960921b604482015290519081900360640190fd5b506001600160a01b03909116600090815260088201602052604090209092909150565b5442111590565b60006119c783836040518060400160405280601e81526020017f536166654d6174683a207375627472616374696f6e206f766572666c6f7700008152506123f7565b6000428260000154111561220b57600083116121ae576040805162461bcd60e51b8152602060048201526013602482015272195c9c9bdc97dd1bdc155c151bdbd4db585b1b606a1b604482015290519081900360640190fd5b81546121c0908463ffffffff61248e16565b80835585546040805183815290519293506001600160a01b038716927f602ca7f17c81aa5e62b3381000dd445f5af7c333574da85f4b246288afc073229181900360200190a36122e2565b8460060154831015612264576040805162461bcd60e51b815260206004820152601d60248201527f6572726f725f6e6577537562736372697074696f6e546f6f536d616c6c000000604482015290519081900360640190fd5b612274428463ffffffff61248e16565b905061227e6125cb565b5060408051602080820183528382526001600160a01b038716600081815260088a018352849020835190558854845186815294519394919390927f9c3ab7e86c11d820cc311335294ebdf7299d8637d47253b930c4120b775d7cca928290030190a3505b84546040805183815290516001600160a01b03871692917fe22e8c2d8a284063fec10f270bc3c776ffb40bcf816b73eef36354d5f3d7b3d4919081900360200190a35050505050565b600380546001600160a01b039283166001600160a01b03199182161790915560028054939092169216919091179055565b60008261236b5750600061194c565b8282028284828161237857fe5b04146119c75760405162461bcd60e51b81526004018080602001828103825260218152602001806125fc6021913960400191505060405180910390fd5b60006119c783836040518060400160405280601a81526020017f536166654d6174683a206469766973696f6e206279207a65726f0000000000008152506124e8565b600081848411156124865760405162461bcd60e51b81526004018080602001828103825283818151815260200191508051906020019080838360005b8381101561244b578181015183820152602001612433565b50505050905090810190601f1680156124785780820380516001836020036101000a031916815260200191505b509250505060405180910390fd5b505050900390565b6000828201838110156119c7576040805162461bcd60e51b815260206004820152601b60248201527f536166654d6174683a206164646974696f6e206f766572666c6f770000000000604482015290519081900360640190fd5b600081836125375760405162461bcd60e51b815260206004820181815283516024840152835190928392604490910191908501908083836000831561244b578181015183820152602001612433565b50600083858161254357fe5b0495945050505050565b828054600181600116156101000203166002900490600052602060002090601f016020900481019282601f1061258e57805160ff19168380011785556125bb565b828001600101855582156125bb579182015b828111156125bb5782518255916020019190600101906125a0565b506125c79291506125de565b5090565b6040518060200160405280600081525090565b6125f891905b808211156125c757600081556001016125e4565b9056fe536166654d6174683a206d756c7469706c69636174696f6e206f766572666c6f77a265627a7a72315820cd0746b3a23737474bdbe328c98f14c0351072bba095284e565a8d06906dc8af64736f6c63430005100032",
  "source": "// solhint-disable not-rely-on-time\npragma solidity ^0.5.16;\n\nimport \"openzeppelin-solidity/contracts/token/ERC20/ERC20.sol\";\nimport \"openzeppelin-solidity/contracts/math/SafeMath.sol\";\n\nimport \"../Ownable.sol\";\n\ninterface PurchaseListener {\n    function onPurchase(bytes32 productId, address subscriber, uint endTimestamp, uint priceDatacoin)\n        external returns (bool accepted);\n}\n/**\n * @title Streamr Marketplace\n * @dev note about numbers:\n *   All prices and exchange rates are in \"decimal fixed-point\", that is, scaled by 10^18, like ETH vs wei.\n *  Seconds are integers as usual.\n *\n * Next version TODO:\n *  1. Bancor integration\n *  - EIP-165 inferface definition; PurchaseListener\n *  - struct creation should use named arguments: Product({id: id, ... })\n *  - buyFor: buy could specify who gets to subscription (without transferSubscription)\n *  - grantSubscription: product owner could give a subscription to X\n */\ncontract Marketplace20180425 is Ownable {\n    using SafeMath for uint256;\n\n    // product events\n    event ProductCreated(address indexed owner, bytes32 indexed id, string name, address beneficiary, uint pricePerSecond, Currency currency, uint minimumSubscriptionSeconds);\n    event ProductUpdated(address indexed owner, bytes32 indexed id, string name, address beneficiary, uint pricePerSecond, Currency currency, uint minimumSubscriptionSeconds);\n    event ProductDeleted(address indexed owner, bytes32 indexed id, string name, address beneficiary, uint pricePerSecond, Currency currency, uint minimumSubscriptionSeconds);\n    event ProductRedeployed(address indexed owner, bytes32 indexed id, string name, address beneficiary, uint pricePerSecond, Currency currency, uint minimumSubscriptionSeconds);\n    event ProductOwnershipOffered(address indexed owner, bytes32 indexed id, address indexed to);\n    event ProductOwnershipChanged(address indexed newOwner, bytes32 indexed id, address indexed oldOwner);\n\n    // subscription events\n    event Subscribed(bytes32 indexed productId, address indexed subscriber, uint endTimestamp);\n    event NewSubscription(bytes32 indexed productId, address indexed subscriber, uint endTimestamp);\n    event SubscriptionExtended(bytes32 indexed productId, address indexed subscriber, uint endTimestamp);\n    event SubscriptionTransferred(bytes32 indexed productId, address indexed from, address indexed to, uint secondsTransferred);\n\n    // currency events\n    event ExchangeRatesUpdated(uint timestamp, uint dataInUsd);\n\n    enum ProductState {\n        NotDeployed,                // non-existent or deleted\n        Deployed                    // created or redeployed\n    }\n\n    enum Currency {\n        DATA,                       // \"token wei\" (10^-18 DATA)\n        USD                         // attodollars (10^-18 USD)\n    }\n\n    struct Product {\n        bytes32 id;\n        string name;\n        address owner;\n        address beneficiary;        // account where revenue is directed to\n        uint pricePerSecond;\n        Currency priceCurrency;\n        uint minimumSubscriptionSeconds;\n        ProductState state;\n        mapping(address => TimeBasedSubscription) subscriptions;\n        address newOwnerCandidate;  // Two phase hand-over to minimize the chance that the product ownership is lost to a non-existent address.\n    }\n\n    struct TimeBasedSubscription {\n        uint endTimestamp;\n    }\n\n    /////////////// Marketplace lifecycle /////////////////\n\n    ERC20 public datacoin;\n\n    address public currencyUpdateAgent;\n\n    constructor(address datacoinAddress, address currencyUpdateAgentAddress) public Ownable() {\n        _initialize(datacoinAddress, currencyUpdateAgentAddress);\n    }\n\n    function _initialize(address datacoinAddress, address currencyUpdateAgentAddress) internal {\n        currencyUpdateAgent = currencyUpdateAgentAddress;\n        datacoin = ERC20(datacoinAddress);\n    }\n\n    ////////////////// Product management /////////////////\n\n    mapping (bytes32 => Product) public products;\n    function getProduct(bytes32 id) public view returns (string memory name, address owner, address beneficiary, uint pricePerSecond, Currency currency, uint minimumSubscriptionSeconds, ProductState state) {\n        return (\n            products[id].name,\n            products[id].owner,\n            products[id].beneficiary,\n            products[id].pricePerSecond,\n            products[id].priceCurrency,\n            products[id].minimumSubscriptionSeconds,\n            products[id].state\n        );\n    }\n\n    // also checks that p exists: p.owner == 0 for non-existent products\n    modifier onlyProductOwner(bytes32 productId) {\n        Product storage p = products[productId];\n        require(p.id != 0x0, \"error_notFound\");\n        require(p.owner == msg.sender || owner == msg.sender, \"error_productOwnersOnly\");\n        _;\n    }\n\n    function createProduct(bytes32 id, string memory name, address beneficiary, uint pricePerSecond, Currency currency, uint minimumSubscriptionSeconds) public whenNotHalted {\n        require(id != 0x0, \"error_nullProductId\");\n        require(pricePerSecond > 0, \"error_freeProductsNotSupported\");\n        Product storage p = products[id];\n        require(p.id == 0x0, \"error_alreadyExists\");\n        products[id] = Product(id, name, msg.sender, beneficiary, pricePerSecond, currency, minimumSubscriptionSeconds, ProductState.Deployed, address(0));\n        emit ProductCreated(msg.sender, id, name, beneficiary, pricePerSecond, currency, minimumSubscriptionSeconds);\n    }\n\n    /**\n    * Stop offering the product\n    */\n    function deleteProduct(bytes32 productId) public onlyProductOwner(productId) {\n        Product storage p = products[productId];\n        require(p.state == ProductState.Deployed, \"error_notDeployed\");\n        p.state = ProductState.NotDeployed;\n        emit ProductDeleted(p.owner, productId, p.name, p.beneficiary, p.pricePerSecond, p.priceCurrency, p.minimumSubscriptionSeconds);\n    }\n\n    /**\n    * Return product to market\n    */\n    function redeployProduct(bytes32 productId) public onlyProductOwner(productId) {\n        Product storage p = products[productId];\n        require(p.state == ProductState.NotDeployed, \"error_mustBeNotDeployed\");\n        p.state = ProductState.Deployed;\n        emit ProductRedeployed(p.owner, productId, p.name, p.beneficiary, p.pricePerSecond, p.priceCurrency, p.minimumSubscriptionSeconds);\n    }\n\n    function updateProduct(bytes32 productId, string memory name, address beneficiary, uint pricePerSecond, Currency currency, uint minimumSubscriptionSeconds) public onlyProductOwner(productId) {\n        require(pricePerSecond > 0, \"error_freeProductsNotSupported\");\n        Product storage p = products[productId];\n        p.name = name;\n        p.beneficiary = beneficiary;\n        p.pricePerSecond = pricePerSecond;\n        p.priceCurrency = currency;\n        p.minimumSubscriptionSeconds = minimumSubscriptionSeconds;\n        emit ProductUpdated(p.owner, p.id, name, beneficiary, pricePerSecond, currency, minimumSubscriptionSeconds);\n    }\n\n    /**\n    * Changes ownership of the product. Two phase hand-over minimizes the chance that the product ownership is lost to a non-existent address.\n    */\n    function offerProductOwnership(bytes32 productId, address newOwnerCandidate) public onlyProductOwner(productId) {\n        // that productId exists is already checked in onlyProductOwner\n        products[productId].newOwnerCandidate = newOwnerCandidate;\n        emit ProductOwnershipOffered(products[productId].owner, productId, newOwnerCandidate);\n    }\n\n    /**\n    * Changes ownership of the product. Two phase hand-over minimizes the chance that the product ownership is lost to a non-existent address.\n    */\n    function claimProductOwnership(bytes32 productId) public whenNotHalted {\n        // also checks that productId exists (newOwnerCandidate is zero for non-existent)\n        Product storage p = products[productId];\n        require(msg.sender == p.newOwnerCandidate, \"error_notPermitted\");\n        emit ProductOwnershipChanged(msg.sender, productId, p.owner);\n        p.owner = msg.sender;\n        p.newOwnerCandidate = address(0);\n    }\n\n    /////////////// Subscription management ///////////////\n\n    function getSubscription(bytes32 productId, address subscriber) public view returns (bool isValid, uint endTimestamp) {\n        (, TimeBasedSubscription storage sub) = _getSubscription(productId, subscriber);\n        return (_isValid(sub), sub.endTimestamp);\n    }\n\n    function getSubscriptionTo(bytes32 productId) public view returns (bool isValid, uint endTimestamp) {\n        return getSubscription(productId, msg.sender);\n    }\n\n    /**\n     * Checks if the given address currently has a valid subscription\n     */\n    function hasValidSubscription(bytes32 productId, address subscriber) public view returns (bool isValid) {\n        (, TimeBasedSubscription storage sub) = _getSubscription(productId, subscriber);\n        return _isValid(sub);\n    }\n\n\n\n    function _subscribe(bytes32 productId, uint subscriptionSeconds, address recipient, bool requirePayment) internal {\n        (Product storage product, TimeBasedSubscription storage subcr) = _getSubscription(productId, recipient);\n        require(product.state == ProductState.Deployed, \"error_notDeployed\");\n        _addSubscription(product, recipient, subscriptionSeconds, subcr);\n\n        uint price = 0;\n        if (requirePayment) {\n            price = getPriceInData(subscriptionSeconds, product.pricePerSecond, product.priceCurrency);\n            require(datacoin.transferFrom(msg.sender, product.beneficiary, price), \"error_paymentFailed\");\n        }\n        uint256 codeSize;\n        address addr = product.beneficiary;\n        assembly { codeSize := extcodesize(addr) }  // solhint-disable-line no-inline-assembly\n        if (codeSize > 0) {\n            require(PurchaseListener(product.beneficiary).onPurchase(productId, recipient, subcr.endTimestamp, price));\n        }\n    }\n\n    function grantSubscription(bytes32 productId, uint subscriptionSeconds, address recipient) public whenNotHalted onlyProductOwner(productId) {\n        return _subscribe(productId, subscriptionSeconds, recipient, false);\n    }\n    function buyFor(bytes32 productId, uint subscriptionSeconds, address recipient)  public whenNotHalted {\n        return _subscribe(productId, subscriptionSeconds, recipient, true);\n    }\n\n     /**\n     * Purchases access to this stream for msg.sender.\n     * If the address already has a valid subscription, extends the subscription by the given period.\n     * @dev since v4.0: Notify the seller if the seller implements PurchaseListener interface\n     */\n    function buy(bytes32 productId, uint subscriptionSeconds) public whenNotHalted {\n        buyFor(productId, subscriptionSeconds, msg.sender);\n    }\n\n\n    /**\n    * Transfer a valid subscription from msg.sender to a new address.\n    * If the address already has a valid subscription, extends the subscription by the msg.sender's remaining period.\n    */\n    function transferSubscription(bytes32 productId, address newSubscriber) public whenNotHalted {\n        (Product storage product, TimeBasedSubscription storage sub) = _getSubscription(productId, msg.sender);\n        require(_isValid(sub), \"error_subscriptionNotValid\");\n        uint secondsLeft = sub.endTimestamp.sub(block.timestamp);\n        TimeBasedSubscription storage newSub = product.subscriptions[newSubscriber];\n        _addSubscription(product, newSubscriber, secondsLeft, newSub);\n        delete product.subscriptions[msg.sender];\n        emit SubscriptionTransferred(productId, msg.sender, newSubscriber, secondsLeft);\n    }\n\n    function _getSubscription(bytes32 productId, address subscriber) internal view returns (Product storage p, TimeBasedSubscription storage s) {\n        p = products[productId];\n        require(p.id != 0x0, \"error_notFound\");\n        s = p.subscriptions[subscriber];\n    }\n\n    function _isValid(TimeBasedSubscription storage s) internal view returns (bool) {\n        return s.endTimestamp >= block.timestamp;\n    }\n\n    function _addSubscription(Product storage p, address subscriber, uint addSeconds, TimeBasedSubscription storage oldSub) internal {\n        uint endTimestamp;\n        if (oldSub.endTimestamp > block.timestamp) {\n            require(addSeconds > 0, \"error_topUpTooSmall\");\n            endTimestamp = oldSub.endTimestamp.add(addSeconds);\n            oldSub.endTimestamp = endTimestamp;\n            emit SubscriptionExtended(p.id, subscriber, endTimestamp);\n        } else {\n            require(addSeconds >= p.minimumSubscriptionSeconds, \"error_newSubscriptionTooSmall\");\n            endTimestamp = block.timestamp.add(addSeconds);\n            TimeBasedSubscription memory newSub = TimeBasedSubscription(endTimestamp);\n            p.subscriptions[subscriber] = newSub;\n            emit NewSubscription(p.id, subscriber, endTimestamp);\n        }\n        emit Subscribed(p.id, subscriber, endTimestamp);\n    }\n\n    // TODO: transfer allowance to another Marketplace contract\n    // Mechanism basically is that this Marketplace draws from the allowance and credits\n    //   the account on another Marketplace; OR that there is a central credit pool (say, an ERC20 token)\n    // Creating another ERC20 token for this could be a simple fix: it would need the ability to transfer allowances\n\n    /////////////// Currency management ///////////////\n\n    // Exchange rates are formatted as \"decimal fixed-point\", that is, scaled by 10^18, like ether.\n    //        Exponent: 10^18 15 12  9  6  3  0\n    //                      |  |  |  |  |  |  |\n    uint public dataPerUsd = 100000000000000000;   // ~= 0.1 DATA/USD\n\n    /**\n    * Update currency exchange rates; all purchases are still billed in DATAcoin\n    * @param timestamp in seconds when the exchange rates were last updated\n    * @param dataUsd how many data atoms (10^-18 DATA) equal one USD dollar\n    */\n    function updateExchangeRates(uint timestamp, uint dataUsd) public {\n        require(msg.sender == currencyUpdateAgent, \"error_notPermitted\");\n        require(dataUsd > 0);\n        dataPerUsd = dataUsd;\n        emit ExchangeRatesUpdated(timestamp, dataUsd);\n    }\n\n    /**\n    * Helper function to calculate (hypothetical) subscription cost for given seconds and price, using current exchange rates.\n    * @param subscriptionSeconds length of hypothetical subscription, as a non-scaled integer\n    * @param price nominal price scaled by 10^18 (\"token wei\" or \"attodollars\")\n    * @param unit unit of the number price\n    */\n    function getPriceInData(uint subscriptionSeconds, uint price, Currency unit) public view returns (uint datacoinAmount) {\n        if (unit == Currency.DATA) {\n            return price.mul(subscriptionSeconds);\n        }\n        return price.mul(dataPerUsd).div(10**18).mul(subscriptionSeconds);\n    }\n\n    /////////////// Admin functionality ///////////////\n\n    event Halted();\n    event Resumed();\n    bool public halted = false;\n\n    modifier whenNotHalted() {\n        require(!halted || owner == msg.sender, \"error_halted\");\n        _;\n    }\n    function halt() public onlyOwner {\n        halted = true;\n        emit Halted();\n    }\n    function resume() public onlyOwner {\n        halted = false;\n        emit Resumed();\n    }\n\n    function reInitialize(address datacoinAddress, address currencyUpdateAgentAddress) public onlyOwner {\n        _initialize(datacoinAddress, currencyUpdateAgentAddress);\n    }\n}\n",
  "sourcePath": "/Users/unomasanori/projects/DEMO_MVP/StreamerData Challenge/Ref/marketplace-contracts/contracts/deployed/Marketplace-20180425-0xa10151d088f6f2705a05d6c83719e99e079a61c1.sol",
  "compiler": {
    "name": "solc",
    "version": "0.5.16+commit.9c3226ce.Emscripten.clang"
  },
  "schemaVersion": "3.0.23",
  "updatedAt": "2021-01-11T05:57:51.105Z",
  "devdoc": {
    "details": "note about numbers:  All prices and exchange rates are in \"decimal fixed-point\", that is, scaled by 10^18, like ETH vs wei. Seconds are integers as usual. * Next version TODO: 1. Bancor integration - EIP-165 inferface definition; PurchaseListener - struct creation should use named arguments: Product({id: id, ... }) - buyFor: buy could specify who gets to subscription (without transferSubscription) - grantSubscription: product owner could give a subscription to X",
    "methods": {
      "buy(bytes32,uint256)": {
        "details": "since v4.0: Notify the seller if the seller implements PurchaseListener interface"
      },
      "claimOwnership()": {
        "details": "Allows the pendingOwner address to finalize the transfer."
      },
      "getPriceInData(uint256,uint256,uint8)": {
        "params": {
          "price": "nominal price scaled by 10^18 (\"token wei\" or \"attodollars\")",
          "subscriptionSeconds": "length of hypothetical subscription, as a non-scaled integer",
          "unit": "unit of the number price"
        }
      },
      "transferOwnership(address)": {
        "details": "Allows the current owner to set the pendingOwner address.",
        "params": {
          "newOwner": "The address to transfer ownership to."
        }
      },
      "updateExchangeRates(uint256,uint256)": {
        "params": {
          "dataUsd": "how many data atoms (10^-18 DATA) equal one USD dollar",
          "timestamp": "in seconds when the exchange rates were last updated"
        }
      }
    },
    "title": "Streamr Marketplace"
  },
  "userdoc": {
    "methods": {
      "buy(bytes32,uint256)": {
        "notice": "Purchases access to this stream for msg.sender. If the address already has a valid subscription, extends the subscription by the given period."
      },
      "claimProductOwnership(bytes32)": {
        "notice": "Changes ownership of the product. Two phase hand-over minimizes the chance that the product ownership is lost to a non-existent address."
      },
      "deleteProduct(bytes32)": {
        "notice": "Stop offering the product"
      },
      "getPriceInData(uint256,uint256,uint8)": {
        "notice": "Helper function to calculate (hypothetical) subscription cost for given seconds and price, using current exchange rates."
      },
      "getSubscription(bytes32,address)": {
        "notice": "//////////// Subscription management ///////////////"
      },
      "hasValidSubscription(bytes32,address)": {
        "notice": "Checks if the given address currently has a valid subscription"
      },
      "offerProductOwnership(bytes32,address)": {
        "notice": "Changes ownership of the product. Two phase hand-over minimizes the chance that the product ownership is lost to a non-existent address."
      },
      "redeployProduct(bytes32)": {
        "notice": "Return product to market"
      },
      "transferSubscription(bytes32,address)": {
        "notice": "Transfer a valid subscription from msg.sender to a new address. If the address already has a valid subscription, extends the subscription by the msg.sender's remaining period."
      },
      "updateExchangeRates(uint256,uint256)": {
        "notice": "Update currency exchange rates; all purchases are still billed in DATAcoin"
      }
    }
  }
}