{
  "contractName": "MockCommunity",
  "abi": [
    {
      "anonymous": false,
      "inputs": [],
      "name": "PurchaseRegistered",
      "type": "event"
    },
    {
      "constant": true,
      "inputs": [],
      "name": "onPurchaseReturn",
      "outputs": [
        {
          "internalType": "bool",
          "name": "",
          "type": "bool"
        }
      ],
      "payable": false,
      "stateMutability": "view",
      "type": "function"
    },
    {
      "constant": false,
      "inputs": [
        {
          "internalType": "bytes32",
          "name": "",
          "type": "bytes32"
        },
        {
          "internalType": "address",
          "name": "",
          "type": "address"
        },
        {
          "internalType": "uint256",
          "name": "",
          "type": "uint256"
        },
        {
          "internalType": "uint256",
          "name": "",
          "type": "uint256"
        },
        {
          "internalType": "uint256",
          "name": "",
          "type": "uint256"
        }
      ],
      "name": "onPurchase",
      "outputs": [
        {
          "internalType": "bool",
          "name": "",
          "type": "bool"
        }
      ],
      "payable": false,
      "stateMutability": "nonpayable",
      "type": "function"
    },
    {
      "constant": false,
      "inputs": [
        {
          "internalType": "bool",
          "name": "val",
          "type": "bool"
        }
      ],
      "name": "setReturnVal",
      "outputs": [],
      "payable": false,
      "stateMutability": "nonpayable",
      "type": "function"
    }
  ],
  "bytecode": "0x60806040526000805460ff1916600117905534801561001d57600080fd5b5061014d8061002d6000396000f3fe608060405234801561001057600080fd5b50600436106100415760003560e01c80630d4fa452146100465780633a388dff146100625780634a439cc014610083575b600080fd5b61004e6100c1565b604080519115158252519081900360200190f35b6100816004803603602081101561007857600080fd5b503515156100ca565b005b61004e600480360360a081101561009957600080fd5b508035906001600160a01b0360208201351690604081013590606081013590608001356100dd565b60005460ff1681565b6000805460ff1916911515919091179055565b6040516000907fda894a65742a2eefbfb003a86c469a9b8dc1893f244bc9e66c8eb571752273e0908290a15060005460ff169594505050505056fea265627a7a72315820d89ea92152da5a9dc0cc7b9b1fd662c3a3122f9a9c6553911cd917190af225ca64736f6c63430005100032",
  "source": "pragma solidity ^0.5.16;\n\nimport \"./PurchaseListener.sol\";\n\n// Cause truffle compile to also build the ERC20Mintable for testing\nimport \"openzeppelin-solidity/contracts/token/ERC20/ERC20Mintable.sol\";\n\n/**\n * Part of Marketplace unit tests; tests that subscription notifies beneficiary contract\n *\n * Also minimal Community implementation\n */\ncontract MockCommunity is PurchaseListener {\n    event PurchaseRegistered();\n\n    bool public onPurchaseReturn = true;\n\n    function onPurchase(bytes32, address, uint, uint, uint) external returns (bool) {\n        emit PurchaseRegistered();\n        return onPurchaseReturn;\n    }\n    function setReturnVal(bool val) public{\n        onPurchaseReturn = val;\n    }\n}\n",
  "sourcePath": "/Users/unomasanori/projects/DEMO_MVP/Streamer🇨🇭Data Challenge/Ref/marketplace-contracts/contracts/MockCommunity.sol",
  "compiler": {
    "name": "solc",
    "version": "0.5.16+commit.9c3226ce.Emscripten.clang"
  },
  "schemaVersion": "3.0.23",
  "updatedAt": "2021-01-11T05:57:51.021Z",
  "devdoc": {
    "methods": {}
  },
  "userdoc": {
    "methods": {},
    "notice": "Part of Marketplace unit tests; tests that subscription notifies beneficiary contract * Also minimal Community implementation"
  }
}