{
  "contractName": "MockBancorConverter",
  "abi": [
    {
      "constant": false,
      "inputs": [
        {
          "internalType": "contract IERC20Token[]",
          "name": "_path",
          "type": "address[]"
        },
        {
          "internalType": "uint256",
          "name": "_amount",
          "type": "uint256"
        },
        {
          "internalType": "uint256",
          "name": "_minReturn",
          "type": "uint256"
        }
      ],
      "name": "quickConvert",
      "outputs": [
        {
          "internalType": "uint256",
          "name": "",
          "type": "uint256"
        }
      ],
      "payable": true,
      "stateMutability": "payable",
      "type": "function"
    }
  ],
  "bytecode": "0x608060405234801561001057600080fd5b50610398806100206000396000f3fe60806040526004361061001e5760003560e01c8063f0843ba914610023575b600080fd5b6100cb6004803603606081101561003957600080fd5b81019060208101813564010000000081111561005457600080fd5b82018360208201111561006657600080fd5b8035906020019184602083028401116401000000008311171561008857600080fd5b91908080602002602001604051908101604052809392919081815260200183836020028082843760009201919091525092955050823593505050602001356100dd565b60408051918252519081900360200190f35b600080846001865103815181106100f057fe5b6020026020010151905082841015610141576040805162461bcd60e51b815260206004820152600f60248201526e32b93937b92fb6b4b73932ba3ab93760891b604482015290519081900360640190fd5b341561018a573484146101855760405162461bcd60e51b815260040180806020018281038252602f815260200180610335602f913960400191505060405180910390fd5b610268565b60008560008151811061019957fe5b602090810291909101810151604080516323b872dd60e01b81523360048201523060248201526044810189905290519193506001600160a01b038416926323b872dd926064808401938290030181600087803b1580156101f857600080fd5b505af115801561020c573d6000803e3d6000fd5b505050506040513d602081101561022257600080fd5b5051610266576040805162461bcd60e51b815260206004820152600e60248201526d1d1c985b99995c8819985a5b195960921b604482015290519081900360640190fd5b505b6040805163a9059cbb60e01b81523360048201526024810186905290516001600160a01b0383169163a9059cbb9160448083019260209291908290030181600087803b1580156102b757600080fd5b505af11580156102cb573d6000803e3d6000fd5b505050506040513d60208110156102e157600080fd5b505161032b576040805162461bcd60e51b81526020600482015260146024820152731cd95b99081d1bc8189d5e595c8819985a5b195960621b604482015290519081900360640190fd5b5091939250505056fe73686f756c64207061737320616d6f756e74203d206d73672e76616c756520666f7220455448207075726368617365a265627a7a72315820abc391ff9274d837d64de44326dbc44c2a58fd073ab27b49c26d6a37c3dbff5764736f6c63430005100032",
  "source": "\npragma solidity ^0.5.16;\n\ninterface IERC20Token {\n    function name() external view returns (string memory);\n    function symbol() external view returns (string memory);\n    function decimals() external view returns (uint8);\n    function totalSupply() external view returns (uint256);\n    function balanceOf(address _owner) external view returns (uint256);\n    function allowance(address _owner, address _spender) external view returns (uint256);\n    function transfer(address _to, uint256 _value) external returns (bool success);\n    function transferFrom(address _from, address _to, uint256 _value) external returns (bool success);\n    function approve(address _spender, uint256 _value) external returns (bool success);\n}\n\ncontract IBancorConverter {\n    function quickConvert(IERC20Token[] memory _path, uint256 _amount, uint256 _minReturn) public payable returns (uint256) {}\n}\n\n/**\ntranfers amount of IERC20Token[0] to this contract, and transfers same amount of IERC20Token[path.length-1] token to caller\n */\n\ncontract MockBancorConverter is IBancorConverter {\n    function quickConvert(IERC20Token[] memory _path, uint256 _amount, uint256 _minReturn) public payable returns (uint256) {\n        IERC20Token toToken = _path[_path.length-1];\n        require(_amount >= _minReturn, \"error_minreturn\");\n        if(msg.value > 0){\n            //eth purchase\n            require(_amount == msg.value, \"should pass amount = msg.value for ETH purchase\");\n        }\n\n        else{\n            // ERC20 purchase\n            IERC20Token fromToken = _path[0];\n            require(fromToken.transferFrom(msg.sender,address(this),_amount),\"tranfer failed\");\n        }\n        require(toToken.transfer(msg.sender,_amount),\"send to buyer failed\");\n        return _amount;\n    }\n\n}\n",
  "sourcePath": "/Users/unomasanori/projects/DEMO_MVP/Streamer🇨🇭Data Challenge/Ref/marketplace-contracts/contracts/MockBancorConverter.sol",
  "compiler": {
    "name": "solc",
    "version": "0.5.16+commit.9c3226ce.Emscripten.clang"
  },
  "schemaVersion": "3.0.23",
  "updatedAt": "2021-01-11T05:57:51.016Z",
  "devdoc": {
    "methods": {}
  },
  "userdoc": {
    "methods": {},
    "notice": "tranfers amount of IERC20Token[0] to this contract, and transfers same amount of IERC20Token[path.length-1] token to caller"
  }
}